{
  "_format": "hh-sol-artifact-1",
  "contractName": "Transactions",
  "sourceName": "contracts/Transactions.sol",
  "abi": [
    {
      "inputs": [
        {
          "internalType": "address",
          "name": "receiver",
          "type": "address"
        },
        {
          "internalType": "uint256",
          "name": "amount",
          "type": "uint256"
        },
        {
          "internalType": "string",
          "name": "timestamp",
          "type": "string"
        }
      ],
      "name": "publishTransaction",
      "outputs": [],
      "stateMutability": "nonpayable",
      "type": "function"
    },
    {
      "inputs": [
        {
          "internalType": "uint256",
          "name": "id",
          "type": "uint256"
        }
      ],
      "name": "readTransaction",
      "outputs": [
        {
          "internalType": "address",
          "name": "",
          "type": "address"
        },
        {
          "internalType": "uint256",
          "name": "",
          "type": "uint256"
        },
        {
          "internalType": "string",
          "name": "",
          "type": "string"
        }
      ],
      "stateMutability": "view",
      "type": "function"
    },
    {
      "inputs": [],
      "name": "readTransactionLength",
      "outputs": [
        {
          "internalType": "uint256",
          "name": "",
          "type": "uint256"
        }
      ],
      "stateMutability": "view",
      "type": "function"
    },
    {
      "inputs": [
        {
          "internalType": "address",
          "name": "",
          "type": "address"
        },
        {
          "internalType": "uint256",
          "name": "",
          "type": "uint256"
        }
      ],
      "name": "userTransactions",
      "outputs": [
        {
          "internalType": "address",
          "name": "receiver",
          "type": "address"
        },
        {
          "internalType": "uint256",
          "name": "amount",
          "type": "uint256"
        },
        {
          "internalType": "string",
          "name": "timestamp",
          "type": "string"
        }
      ],
      "stateMutability": "view",
      "type": "function"
    }
  ],
  "bytecode": "0x608060405234801561001057600080fd5b50610a60806100206000396000f3fe608060405234801561001057600080fd5b506004361061004c5760003560e01c806307444a97146100515780630c25e81d14610083578063364105a61461009f578063b842ec44146100bd575b600080fd5b61006b600480360381019061006691906106e9565b6100ef565b60405161007a93929190610769565b60405180910390f35b61009d60048036038101906100989190610682565b610261565b005b6100a76103eb565b6040516100b491906107a7565b60405180910390f35b6100d760048036038101906100d29190610646565b610432565b6040516100e693929190610769565b60405180910390f35b600080606060008060003373ffffffffffffffffffffffffffffffffffffffff1673ffffffffffffffffffffffffffffffffffffffff16815260200190815260200160002060008681526020019081526020016000206040518060600160405290816000820160009054906101000a900473ffffffffffffffffffffffffffffffffffffffff1673ffffffffffffffffffffffffffffffffffffffff1673ffffffffffffffffffffffffffffffffffffffff168152602001600182015481526020016002820180546101c0906108b2565b80601f01602080910402602001604051908101604052809291908181526020018280546101ec906108b2565b80156102395780601f1061020e57610100808354040283529160200191610239565b820191906000526020600020905b81548152906001019060200180831161021c57829003601f168201915b5050505050815250509050806000015181602001518260400151935093509350509193909250565b60405180606001604052808473ffffffffffffffffffffffffffffffffffffffff168152602001838152602001828152506000803373ffffffffffffffffffffffffffffffffffffffff1673ffffffffffffffffffffffffffffffffffffffff1681526020019081526020016000206000600160003373ffffffffffffffffffffffffffffffffffffffff1673ffffffffffffffffffffffffffffffffffffffff16815260200190815260200160002054815260200190815260200160002060008201518160000160006101000a81548173ffffffffffffffffffffffffffffffffffffffff021916908373ffffffffffffffffffffffffffffffffffffffff16021790555060208201518160010155604082015181600201908051906020019061038d929190610511565b50905050600160003373ffffffffffffffffffffffffffffffffffffffff1673ffffffffffffffffffffffffffffffffffffffff16815260200190815260200160002060008154809291906103e190610915565b9190505550505050565b6000600160003373ffffffffffffffffffffffffffffffffffffffff1673ffffffffffffffffffffffffffffffffffffffff16815260200190815260200160002054905090565b6000602052816000526040600020602052806000526040600020600091509150508060000160009054906101000a900473ffffffffffffffffffffffffffffffffffffffff169080600101549080600201805461048e906108b2565b80601f01602080910402602001604051908101604052809291908181526020018280546104ba906108b2565b80156105075780601f106104dc57610100808354040283529160200191610507565b820191906000526020600020905b8154815290600101906020018083116104ea57829003601f168201915b5050505050905083565b82805461051d906108b2565b90600052602060002090601f01602090048101928261053f5760008555610586565b82601f1061055857805160ff1916838001178555610586565b82800160010185558215610586579182015b8281111561058557825182559160200191906001019061056a565b5b5090506105939190610597565b5090565b5b808211156105b0576000816000905550600101610598565b5090565b60006105c76105c2846107e7565b6107c2565b9050828152602081018484840111156105df57600080fd5b6105ea848285610870565b509392505050565b600081359050610601816109fc565b92915050565b600082601f83011261061857600080fd5b81356106288482602086016105b4565b91505092915050565b60008135905061064081610a13565b92915050565b6000806040838503121561065957600080fd5b6000610667858286016105f2565b925050602061067885828601610631565b9150509250929050565b60008060006060848603121561069757600080fd5b60006106a5868287016105f2565b93505060206106b686828701610631565b925050604084013567ffffffffffffffff8111156106d357600080fd5b6106df86828701610607565b9150509250925092565b6000602082840312156106fb57600080fd5b600061070984828501610631565b91505092915050565b61071b81610834565b82525050565b600061072c82610818565b6107368185610823565b935061074681856020860161087f565b61074f816109eb565b840191505092915050565b61076381610866565b82525050565b600060608201905061077e6000830186610712565b61078b602083018561075a565b818103604083015261079d8184610721565b9050949350505050565b60006020820190506107bc600083018461075a565b92915050565b60006107cc6107dd565b90506107d882826108e4565b919050565b6000604051905090565b600067ffffffffffffffff821115610802576108016109bc565b5b61080b826109eb565b9050602081019050919050565b600081519050919050565b600082825260208201905092915050565b600061083f82610846565b9050919050565b600073ffffffffffffffffffffffffffffffffffffffff82169050919050565b6000819050919050565b82818337600083830152505050565b60005b8381101561089d578082015181840152602081019050610882565b838111156108ac576000848401525b50505050565b600060028204905060018216806108ca57607f821691505b602082108114156108de576108dd61098d565b5b50919050565b6108ed826109eb565b810181811067ffffffffffffffff8211171561090c5761090b6109bc565b5b80604052505050565b600061092082610866565b91507fffffffffffffffffffffffffffffffffffffffffffffffffffffffffffffffff8214156109535761095261095e565b5b600182019050919050565b7f4e487b7100000000000000000000000000000000000000000000000000000000600052601160045260246000fd5b7f4e487b7100000000000000000000000000000000000000000000000000000000600052602260045260246000fd5b7f4e487b7100000000000000000000000000000000000000000000000000000000600052604160045260246000fd5b6000601f19601f8301169050919050565b610a0581610834565b8114610a1057600080fd5b50565b610a1c81610866565b8114610a2757600080fd5b5056fea264697066735822122084c720ae32f6ca40ae794a8d1daabbc74add7ad10b4ee00143fceaf2d24f5c9264736f6c63430008040033",
  "linkReferences": {},
  "deployedLinkReferences": {}
}