{
  "_format": "hh-sol-artifact-1",
  "contractName": "Transactions",
  "sourceName": "contracts/Transactions.sol",
  "abi": [
    {
      "inputs": [
        {
          "internalType": "address",
          "name": "sender",
          "type": "address"
        },
        {
          "internalType": "address",
          "name": "receiver",
          "type": "address"
        },
        {
          "internalType": "uint256",
          "name": "amount",
          "type": "uint256"
        },
        {
          "internalType": "string",
          "name": "message",
          "type": "string"
        },
        {
          "internalType": "string",
          "name": "timestamp",
          "type": "string"
        }
      ],
      "name": "publishTransaction",
      "outputs": [],
      "stateMutability": "nonpayable",
      "type": "function"
    },
    {
      "inputs": [
        {
          "internalType": "address",
          "name": "sender",
          "type": "address"
        },
        {
          "internalType": "uint256",
          "name": "id",
          "type": "uint256"
        }
      ],
      "name": "readTransaction",
      "outputs": [
        {
          "internalType": "address",
          "name": "",
          "type": "address"
        },
        {
          "internalType": "address",
          "name": "",
          "type": "address"
        },
        {
          "internalType": "uint256",
          "name": "",
          "type": "uint256"
        },
        {
          "internalType": "string",
          "name": "",
          "type": "string"
        },
        {
          "internalType": "string",
          "name": "",
          "type": "string"
        }
      ],
      "stateMutability": "view",
      "type": "function"
    },
    {
      "inputs": [
        {
          "internalType": "address",
          "name": "sender",
          "type": "address"
        }
      ],
      "name": "readTransactionLength",
      "outputs": [
        {
          "internalType": "uint256",
          "name": "",
          "type": "uint256"
        }
      ],
      "stateMutability": "view",
      "type": "function"
    },
    {
      "inputs": [
        {
          "internalType": "address",
          "name": "",
          "type": "address"
        },
        {
          "internalType": "uint256",
          "name": "",
          "type": "uint256"
        }
      ],
      "name": "userTransactions",
      "outputs": [
        {
          "internalType": "address",
          "name": "sender",
          "type": "address"
        },
        {
          "internalType": "address",
          "name": "receiver",
          "type": "address"
        },
        {
          "internalType": "uint256",
          "name": "amount",
          "type": "uint256"
        },
        {
          "internalType": "string",
          "name": "message",
          "type": "string"
        },
        {
          "internalType": "string",
          "name": "timestamp",
          "type": "string"
        }
      ],
      "stateMutability": "view",
      "type": "function"
    }
  ],
  "bytecode": "0x608060405234801561001057600080fd5b50610d13806100206000396000f3fe608060405234801561001057600080fd5b506004361061004c5760003560e01c806321243591146100515780632820ca461461006d57806338d838ad1461009d578063b842ec44146100d1575b600080fd5b61006b600480360381019061006691906108bf565b610105565b005b61008760048036038101906100829190610896565b610317565b6040516100949190610a5a565b60405180910390f35b6100b760048036038101906100b29190610966565b610360565b6040516100c89594939291906109f9565b60405180910390f35b6100eb60048036038101906100e69190610966565b6105ce565b6040516100fc9594939291906109f9565b60405180910390f35b6040518060a001604052808673ffffffffffffffffffffffffffffffffffffffff1681526020018573ffffffffffffffffffffffffffffffffffffffff168152602001848152602001838152602001828152506000808773ffffffffffffffffffffffffffffffffffffffff1673ffffffffffffffffffffffffffffffffffffffff1681526020019081526020016000206000600160008973ffffffffffffffffffffffffffffffffffffffff1673ffffffffffffffffffffffffffffffffffffffff16815260200190815260200160002054815260200190815260200160002060008201518160000160006101000a81548173ffffffffffffffffffffffffffffffffffffffff021916908373ffffffffffffffffffffffffffffffffffffffff16021790555060208201518160010160006101000a81548173ffffffffffffffffffffffffffffffffffffffff021916908373ffffffffffffffffffffffffffffffffffffffff16021790555060408201518160020155606082015181600301908051906020019061029a929190610761565b5060808201518160040190805190602001906102b7929190610761565b50905050600160008673ffffffffffffffffffffffffffffffffffffffff1673ffffffffffffffffffffffffffffffffffffffff168152602001908152602001600020600081548092919061030b90610bc8565b91905055505050505050565b6000600160008373ffffffffffffffffffffffffffffffffffffffff1673ffffffffffffffffffffffffffffffffffffffff168152602001908152602001600020549050919050565b600080600060608060008060008973ffffffffffffffffffffffffffffffffffffffff1673ffffffffffffffffffffffffffffffffffffffff16815260200190815260200160002060008881526020019081526020016000206040518060a00160405290816000820160009054906101000a900473ffffffffffffffffffffffffffffffffffffffff1673ffffffffffffffffffffffffffffffffffffffff1673ffffffffffffffffffffffffffffffffffffffff1681526020016001820160009054906101000a900473ffffffffffffffffffffffffffffffffffffffff1673ffffffffffffffffffffffffffffffffffffffff1673ffffffffffffffffffffffffffffffffffffffff1681526020016002820154815260200160038201805461048a90610b65565b80601f01602080910402602001604051908101604052809291908181526020018280546104b690610b65565b80156105035780601f106104d857610100808354040283529160200191610503565b820191906000526020600020905b8154815290600101906020018083116104e657829003601f168201915b5050505050815260200160048201805461051c90610b65565b80601f016020809104026020016040519081016040528092919081815260200182805461054890610b65565b80156105955780601f1061056a57610100808354040283529160200191610595565b820191906000526020600020905b81548152906001019060200180831161057857829003601f168201915b50505050508152505090508060000151816020015182604001518360600151846080015195509550955095509550509295509295909350565b6000602052816000526040600020602052806000526040600020600091509150508060000160009054906101000a900473ffffffffffffffffffffffffffffffffffffffff16908060010160009054906101000a900473ffffffffffffffffffffffffffffffffffffffff169080600201549080600301805461065090610b65565b80601f016020809104026020016040519081016040528092919081815260200182805461067c90610b65565b80156106c95780601f1061069e576101008083540402835291602001916106c9565b820191906000526020600020905b8154815290600101906020018083116106ac57829003601f168201915b5050505050908060040180546106de90610b65565b80601f016020809104026020016040519081016040528092919081815260200182805461070a90610b65565b80156107575780601f1061072c57610100808354040283529160200191610757565b820191906000526020600020905b81548152906001019060200180831161073a57829003601f168201915b5050505050905085565b82805461076d90610b65565b90600052602060002090601f01602090048101928261078f57600085556107d6565b82601f106107a857805160ff19168380011785556107d6565b828001600101855582156107d6579182015b828111156107d55782518255916020019190600101906107ba565b5b5090506107e391906107e7565b5090565b5b808211156108005760008160009055506001016107e8565b5090565b600061081761081284610a9a565b610a75565b90508281526020810184848401111561082f57600080fd5b61083a848285610b23565b509392505050565b60008135905061085181610caf565b92915050565b600082601f83011261086857600080fd5b8135610878848260208601610804565b91505092915050565b60008135905061089081610cc6565b92915050565b6000602082840312156108a857600080fd5b60006108b684828501610842565b91505092915050565b600080600080600060a086880312156108d757600080fd5b60006108e588828901610842565b95505060206108f688828901610842565b945050604061090788828901610881565b935050606086013567ffffffffffffffff81111561092457600080fd5b61093088828901610857565b925050608086013567ffffffffffffffff81111561094d57600080fd5b61095988828901610857565b9150509295509295909350565b6000806040838503121561097957600080fd5b600061098785828601610842565b925050602061099885828601610881565b9150509250929050565b6109ab81610ae7565b82525050565b60006109bc82610acb565b6109c68185610ad6565b93506109d6818560208601610b32565b6109df81610c9e565b840191505092915050565b6109f381610b19565b82525050565b600060a082019050610a0e60008301886109a2565b610a1b60208301876109a2565b610a2860408301866109ea565b8181036060830152610a3a81856109b1565b90508181036080830152610a4e81846109b1565b90509695505050505050565b6000602082019050610a6f60008301846109ea565b92915050565b6000610a7f610a90565b9050610a8b8282610b97565b919050565b6000604051905090565b600067ffffffffffffffff821115610ab557610ab4610c6f565b5b610abe82610c9e565b9050602081019050919050565b600081519050919050565b600082825260208201905092915050565b6000610af282610af9565b9050919050565b600073ffffffffffffffffffffffffffffffffffffffff82169050919050565b6000819050919050565b82818337600083830152505050565b60005b83811015610b50578082015181840152602081019050610b35565b83811115610b5f576000848401525b50505050565b60006002820490506001821680610b7d57607f821691505b60208210811415610b9157610b90610c40565b5b50919050565b610ba082610c9e565b810181811067ffffffffffffffff82111715610bbf57610bbe610c6f565b5b80604052505050565b6000610bd382610b19565b91507fffffffffffffffffffffffffffffffffffffffffffffffffffffffffffffffff821415610c0657610c05610c11565b5b600182019050919050565b7f4e487b7100000000000000000000000000000000000000000000000000000000600052601160045260246000fd5b7f4e487b7100000000000000000000000000000000000000000000000000000000600052602260045260246000fd5b7f4e487b7100000000000000000000000000000000000000000000000000000000600052604160045260246000fd5b6000601f19601f8301169050919050565b610cb881610ae7565b8114610cc357600080fd5b50565b610ccf81610b19565b8114610cda57600080fd5b5056fea2646970667358221220432f04a0e2752096a42a1c8693a085048eebbee46d9a1ea8de3d434dc2c8263064736f6c63430008040033",
  "linkReferences": {},
  "deployedLinkReferences": {}
}